{
  "_format": "hh-sol-artifact-1",
  "contractName": "BasedNFT",
  "sourceName": "contracts/BasedNFT.sol",
  "abi": [
    {
      "inputs": [],
      "stateMutability": "nonpayable",
      "type": "constructor"
    },
    {
      "inputs": [
        {
          "internalType": "address",
          "name": "sender",
          "type": "address"
        },
        {
          "internalType": "uint256",
          "name": "tokenId",
          "type": "uint256"
        },
        {
          "internalType": "address",
          "name": "owner",
          "type": "address"
        }
      ],
      "name": "ERC721IncorrectOwner",
      "type": "error"
    },
    {
      "inputs": [
        {
          "internalType": "address",
          "name": "operator",
          "type": "address"
        },
        {
          "internalType": "uint256",
          "name": "tokenId",
          "type": "uint256"
        }
      ],
      "name": "ERC721InsufficientApproval",
      "type": "error"
    },
    {
      "inputs": [
        {
          "internalType": "address",
          "name": "approver",
          "type": "address"
        }
      ],
      "name": "ERC721InvalidApprover",
      "type": "error"
    },
    {
      "inputs": [
        {
          "internalType": "address",
          "name": "operator",
          "type": "address"
        }
      ],
      "name": "ERC721InvalidOperator",
      "type": "error"
    },
    {
      "inputs": [
        {
          "internalType": "address",
          "name": "owner",
          "type": "address"
        }
      ],
      "name": "ERC721InvalidOwner",
      "type": "error"
    },
    {
      "inputs": [
        {
          "internalType": "address",
          "name": "receiver",
          "type": "address"
        }
      ],
      "name": "ERC721InvalidReceiver",
      "type": "error"
    },
    {
      "inputs": [
        {
          "internalType": "address",
          "name": "sender",
          "type": "address"
        }
      ],
      "name": "ERC721InvalidSender",
      "type": "error"
    },
    {
      "inputs": [
        {
          "internalType": "uint256",
          "name": "tokenId",
          "type": "uint256"
        }
      ],
      "name": "ERC721NonexistentToken",
      "type": "error"
    },
    {
      "inputs": [
        {
          "internalType": "address",
          "name": "owner",
          "type": "address"
        }
      ],
      "name": "OwnableInvalidOwner",
      "type": "error"
    },
    {
      "inputs": [
        {
          "internalType": "address",
          "name": "account",
          "type": "address"
        }
      ],
      "name": "OwnableUnauthorizedAccount",
      "type": "error"
    },
    {
      "anonymous": false,
      "inputs": [
        {
          "indexed": true,
          "internalType": "address",
          "name": "owner",
          "type": "address"
        },
        {
          "indexed": true,
          "internalType": "address",
          "name": "approved",
          "type": "address"
        },
        {
          "indexed": true,
          "internalType": "uint256",
          "name": "tokenId",
          "type": "uint256"
        }
      ],
      "name": "Approval",
      "type": "event"
    },
    {
      "anonymous": false,
      "inputs": [
        {
          "indexed": true,
          "internalType": "address",
          "name": "owner",
          "type": "address"
        },
        {
          "indexed": true,
          "internalType": "address",
          "name": "operator",
          "type": "address"
        },
        {
          "indexed": false,
          "internalType": "bool",
          "name": "approved",
          "type": "bool"
        }
      ],
      "name": "ApprovalForAll",
      "type": "event"
    },
    {
      "anonymous": false,
      "inputs": [
        {
          "indexed": true,
          "internalType": "address",
          "name": "issuer",
          "type": "address"
        }
      ],
      "name": "IssuerAuthorized",
      "type": "event"
    },
    {
      "anonymous": false,
      "inputs": [
        {
          "indexed": true,
          "internalType": "address",
          "name": "issuer",
          "type": "address"
        }
      ],
      "name": "IssuerRevoked",
      "type": "event"
    },
    {
      "anonymous": false,
      "inputs": [
        {
          "indexed": true,
          "internalType": "address",
          "name": "previousOwner",
          "type": "address"
        },
        {
          "indexed": true,
          "internalType": "address",
          "name": "newOwner",
          "type": "address"
        }
      ],
      "name": "OwnershipTransferred",
      "type": "event"
    },
    {
      "anonymous": false,
      "inputs": [
        {
          "indexed": true,
          "internalType": "uint256",
          "name": "tokenId",
          "type": "uint256"
        },
        {
          "indexed": true,
          "internalType": "address",
          "name": "contributor",
          "type": "address"
        },
        {
          "indexed": false,
          "internalType": "string",
          "name": "projectName",
          "type": "string"
        },
        {
          "indexed": false,
          "internalType": "string",
          "name": "role",
          "type": "string"
        },
        {
          "indexed": false,
          "internalType": "address",
          "name": "issuer",
          "type": "address"
        }
      ],
      "name": "ProofMinted",
      "type": "event"
    },
    {
      "anonymous": false,
      "inputs": [
        {
          "indexed": true,
          "internalType": "uint256",
          "name": "tokenId",
          "type": "uint256"
        }
      ],
      "name": "ProofRevoked",
      "type": "event"
    },
    {
      "anonymous": false,
      "inputs": [
        {
          "indexed": true,
          "internalType": "address",
          "name": "from",
          "type": "address"
        },
        {
          "indexed": true,
          "internalType": "address",
          "name": "to",
          "type": "address"
        },
        {
          "indexed": true,
          "internalType": "uint256",
          "name": "tokenId",
          "type": "uint256"
        }
      ],
      "name": "Transfer",
      "type": "event"
    },
    {
      "inputs": [
        {
          "internalType": "address",
          "name": "to",
          "type": "address"
        },
        {
          "internalType": "uint256",
          "name": "tokenId",
          "type": "uint256"
        }
      ],
      "name": "approve",
      "outputs": [],
      "stateMutability": "nonpayable",
      "type": "function"
    },
    {
      "inputs": [
        {
          "internalType": "address",
          "name": "issuer",
          "type": "address"
        }
      ],
      "name": "authorizeIssuer",
      "outputs": [],
      "stateMutability": "nonpayable",
      "type": "function"
    },
    {
      "inputs": [
        {
          "internalType": "address",
          "name": "",
          "type": "address"
        }
      ],
      "name": "authorizedIssuers",
      "outputs": [
        {
          "internalType": "bool",
          "name": "",
          "type": "bool"
        }
      ],
      "stateMutability": "view",
      "type": "function"
    },
    {
      "inputs": [
        {
          "internalType": "address",
          "name": "owner",
          "type": "address"
        }
      ],
      "name": "balanceOf",
      "outputs": [
        {
          "internalType": "uint256",
          "name": "",
          "type": "uint256"
        }
      ],
      "stateMutability": "view",
      "type": "function"
    },
    {
      "inputs": [
        {
          "internalType": "address[]",
          "name": "contributors",
          "type": "address[]"
        },
        {
          "internalType": "string",
          "name": "projectName",
          "type": "string"
        },
        {
          "internalType": "string",
          "name": "role",
          "type": "string"
        },
        {
          "internalType": "string",
          "name": "metadataURI",
          "type": "string"
        }
      ],
      "name": "batchMintBased",
      "outputs": [
        {
          "internalType": "uint256[]",
          "name": "",
          "type": "uint256[]"
        }
      ],
      "stateMutability": "nonpayable",
      "type": "function"
    },
    {
      "inputs": [
        {
          "internalType": "address",
          "name": "",
          "type": "address"
        },
        {
          "internalType": "uint256",
          "name": "",
          "type": "uint256"
        }
      ],
      "name": "contributorProofs",
      "outputs": [
        {
          "internalType": "uint256",
          "name": "",
          "type": "uint256"
        }
      ],
      "stateMutability": "view",
      "type": "function"
    },
    {
      "inputs": [
        {
          "internalType": "uint256",
          "name": "tokenId",
          "type": "uint256"
        }
      ],
      "name": "getApproved",
      "outputs": [
        {
          "internalType": "address",
          "name": "",
          "type": "address"
        }
      ],
      "stateMutability": "view",
      "type": "function"
    },
    {
      "inputs": [
        {
          "internalType": "address",
          "name": "contributor",
          "type": "address"
        }
      ],
      "name": "getContributorProofs",
      "outputs": [
        {
          "internalType": "uint256[]",
          "name": "",
          "type": "uint256[]"
        }
      ],
      "stateMutability": "view",
      "type": "function"
    },
    {
      "inputs": [
        {
          "internalType": "uint256",
          "name": "tokenId",
          "type": "uint256"
        }
      ],
      "name": "getProofDetails",
      "outputs": [
        {
          "components": [
            {
              "internalType": "string",
              "name": "projectName",
              "type": "string"
            },
            {
              "internalType": "string",
              "name": "role",
              "type": "string"
            },
            {
              "internalType": "address",
              "name": "issuer",
              "type": "address"
            },
            {
              "internalType": "uint256",
              "name": "timestamp",
              "type": "uint256"
            },
            {
              "internalType": "string",
              "name": "metadataURI",
              "type": "string"
            },
            {
              "internalType": "bool",
              "name": "isActive",
              "type": "bool"
            }
          ],
          "internalType": "struct BasedNFT.Proof",
          "name": "",
          "type": "tuple"
        }
      ],
      "stateMutability": "view",
      "type": "function"
    },
    {
      "inputs": [
        {
          "internalType": "address",
          "name": "owner",
          "type": "address"
        },
        {
          "internalType": "address",
          "name": "operator",
          "type": "address"
        }
      ],
      "name": "isApprovedForAll",
      "outputs": [
        {
          "internalType": "bool",
          "name": "",
          "type": "bool"
        }
      ],
      "stateMutability": "view",
      "type": "function"
    },
    {
      "inputs": [
        {
          "internalType": "address",
          "name": "contributor",
          "type": "address"
        },
        {
          "internalType": "string",
          "name": "projectName",
          "type": "string"
        },
        {
          "internalType": "string",
          "name": "role",
          "type": "string"
        },
        {
          "internalType": "string",
          "name": "metadataURI",
          "type": "string"
        }
      ],
      "name": "mintBased",
      "outputs": [
        {
          "internalType": "uint256",
          "name": "",
          "type": "uint256"
        }
      ],
      "stateMutability": "nonpayable",
      "type": "function"
    },
    {
      "inputs": [],
      "name": "name",
      "outputs": [
        {
          "internalType": "string",
          "name": "",
          "type": "string"
        }
      ],
      "stateMutability": "view",
      "type": "function"
    },
    {
      "inputs": [],
      "name": "owner",
      "outputs": [
        {
          "internalType": "address",
          "name": "",
          "type": "address"
        }
      ],
      "stateMutability": "view",
      "type": "function"
    },
    {
      "inputs": [
        {
          "internalType": "uint256",
          "name": "tokenId",
          "type": "uint256"
        }
      ],
      "name": "ownerOf",
      "outputs": [
        {
          "internalType": "address",
          "name": "",
          "type": "address"
        }
      ],
      "stateMutability": "view",
      "type": "function"
    },
    {
      "inputs": [
        {
          "internalType": "uint256",
          "name": "",
          "type": "uint256"
        }
      ],
      "name": "proofs",
      "outputs": [
        {
          "internalType": "string",
          "name": "projectName",
          "type": "string"
        },
        {
          "internalType": "string",
          "name": "role",
          "type": "string"
        },
        {
          "internalType": "address",
          "name": "issuer",
          "type": "address"
        },
        {
          "internalType": "uint256",
          "name": "timestamp",
          "type": "uint256"
        },
        {
          "internalType": "string",
          "name": "metadataURI",
          "type": "string"
        },
        {
          "internalType": "bool",
          "name": "isActive",
          "type": "bool"
        }
      ],
      "stateMutability": "view",
      "type": "function"
    },
    {
      "inputs": [],
      "name": "renounceOwnership",
      "outputs": [],
      "stateMutability": "nonpayable",
      "type": "function"
    },
    {
      "inputs": [
        {
          "internalType": "address",
          "name": "issuer",
          "type": "address"
        }
      ],
      "name": "revokeIssuer",
      "outputs": [],
      "stateMutability": "nonpayable",
      "type": "function"
    },
    {
      "inputs": [
        {
          "internalType": "uint256",
          "name": "tokenId",
          "type": "uint256"
        }
      ],
      "name": "revokeProof",
      "outputs": [],
      "stateMutability": "nonpayable",
      "type": "function"
    },
    {
      "inputs": [
        {
          "internalType": "address",
          "name": "from",
          "type": "address"
        },
        {
          "internalType": "address",
          "name": "to",
          "type": "address"
        },
        {
          "internalType": "uint256",
          "name": "tokenId",
          "type": "uint256"
        }
      ],
      "name": "safeTransferFrom",
      "outputs": [],
      "stateMutability": "nonpayable",
      "type": "function"
    },
    {
      "inputs": [
        {
          "internalType": "address",
          "name": "from",
          "type": "address"
        },
        {
          "internalType": "address",
          "name": "to",
          "type": "address"
        },
        {
          "internalType": "uint256",
          "name": "tokenId",
          "type": "uint256"
        },
        {
          "internalType": "bytes",
          "name": "data",
          "type": "bytes"
        }
      ],
      "name": "safeTransferFrom",
      "outputs": [],
      "stateMutability": "nonpayable",
      "type": "function"
    },
    {
      "inputs": [
        {
          "internalType": "address",
          "name": "operator",
          "type": "address"
        },
        {
          "internalType": "bool",
          "name": "approved",
          "type": "bool"
        }
      ],
      "name": "setApprovalForAll",
      "outputs": [],
      "stateMutability": "nonpayable",
      "type": "function"
    },
    {
      "inputs": [
        {
          "internalType": "bytes4",
          "name": "interfaceId",
          "type": "bytes4"
        }
      ],
      "name": "supportsInterface",
      "outputs": [
        {
          "internalType": "bool",
          "name": "",
          "type": "bool"
        }
      ],
      "stateMutability": "view",
      "type": "function"
    },
    {
      "inputs": [],
      "name": "symbol",
      "outputs": [
        {
          "internalType": "string",
          "name": "",
          "type": "string"
        }
      ],
      "stateMutability": "view",
      "type": "function"
    },
    {
      "inputs": [
        {
          "internalType": "uint256",
          "name": "tokenId",
          "type": "uint256"
        }
      ],
      "name": "tokenURI",
      "outputs": [
        {
          "internalType": "string",
          "name": "",
          "type": "string"
        }
      ],
      "stateMutability": "view",
      "type": "function"
    },
    {
      "inputs": [],
      "name": "totalSupply",
      "outputs": [
        {
          "internalType": "uint256",
          "name": "",
          "type": "uint256"
        }
      ],
      "stateMutability": "view",
      "type": "function"
    },
    {
      "inputs": [
        {
          "internalType": "address",
          "name": "from",
          "type": "address"
        },
        {
          "internalType": "address",
          "name": "to",
          "type": "address"
        },
        {
          "internalType": "uint256",
          "name": "tokenId",
          "type": "uint256"
        }
      ],
      "name": "transferFrom",
      "outputs": [],
      "stateMutability": "nonpayable",
      "type": "function"
    },
    {
      "inputs": [
        {
          "internalType": "address",
          "name": "newOwner",
          "type": "address"
        }
      ],
      "name": "transferOwnership",
      "outputs": [],
      "stateMutability": "nonpayable",
      "type": "function"
    }
  ],
  "bytecode": "0x60806040523480156200001157600080fd5b50336040518060400160405280600581526020016418985cd95960da1b81525060405180604001604052806005815260200164109054d15160da1b8152508160009081620000609190620001c4565b5060016200006f8282620001c4565b5050506001600160a01b038116620000a157604051631e4fbdf760e01b81526000600482015260240160405180910390fd5b620000ac81620000cd565b50336000908152600a60205260409020805460ff1916600117905562000290565b600680546001600160a01b038381166001600160a01b0319831681179093556040519116919082907f8be0079c531659141344cd1fd0a4f28419497f9722a3daafe3b4186f6b6457e090600090a35050565b634e487b7160e01b600052604160045260246000fd5b600181811c908216806200014a57607f821691505b6020821081036200016b57634e487b7160e01b600052602260045260246000fd5b50919050565b601f821115620001bf57600081815260208120601f850160051c810160208610156200019a5750805b601f850160051c820191505b81811015620001bb57828155600101620001a6565b5050505b505050565b81516001600160401b03811115620001e057620001e06200011f565b620001f881620001f1845462000135565b8462000171565b602080601f831160018114620002305760008415620002175750858301515b600019600386901b1c1916600185901b178555620001bb565b600085815260208120601f198616915b82811015620002615788860151825594840194600190910190840162000240565b5085821015620002805787850151600019600388901b60f8161c191681555b5050505050600190811b01905550565b61219d80620002a06000396000f3fe608060405234801561001057600080fd5b50600436106101a85760003560e01c8063715018a6116100f9578063b88d4fde11610097578063e571445611610071578063e5714456146103a6578063e985e9c5146103b9578063f2fde38b146103cc578063f731fa0f146103df57600080fd5b8063b88d4fde1461036d578063c87b56dd14610380578063d39c928c1461039357600080fd5b806395d89b41116100d357806395d89b411461031a578063962926a8146103225780639ddaf5aa14610335578063a22cb4651461035a57600080fd5b8063715018a6146102ee5780638da5cb5b146102f65780638db2d8b51461030757600080fd5b806323b872dd11610166578063436693d511610140578063436693d5146102955780636352211e146102a85780636fa20f07146102bb57806370a08231146102db57600080fd5b806323b872dd1461024f5780634195a7df1461026257806342842e0e1461028257600080fd5b8062629679146101ad57806301ffc9a7146101c257806306fdde03146101ea578063081812fc146101ff578063095ea7b31461022a57806318160ddd1461023d575b600080fd5b6101c06101bb366004611980565b610402565b005b6101d56101d03660046119b8565b610453565b60405190151581526020015b60405180910390f35b6101f26104a5565b6040516101e19190611a25565b61021261020d366004611a38565b610537565b6040516001600160a01b0390911681526020016101e1565b6101c0610238366004611a51565b610560565b6007545b6040519081526020016101e1565b6101c061025d366004611a7b565b61056f565b610275610270366004611980565b6105ff565b6040516101e19190611ab7565b6101c0610290366004611a7b565b61066b565b6101c06102a3366004611980565b61068b565b6102126102b6366004611a38565b6106df565b6102ce6102c9366004611a38565b6106ea565b6040516101e19190611afb565b6102416102e9366004611980565b610968565b6101c06109b0565b6006546001600160a01b0316610212565b610241610315366004611c47565b6109c4565b6101f2610bc6565b6101c0610330366004611a38565b610bd5565b610348610343366004611a38565b610ca6565b6040516101e196959493929190611ce0565b6101c0610368366004611d45565b610e83565b6101c061037b366004611d81565b610e8e565b6101f261038e366004611a38565b610ea6565b6102416103a1366004611a51565b610fb9565b6102756103b4366004611df1565b610fea565b6101d56103c7366004611eac565b6110f7565b6101c06103da366004611980565b611125565b6101d56103ed366004611980565b600a6020526000908152604090205460ff1681565b61040a611163565b6001600160a01b0381166000818152600a6020526040808220805460ff19169055517f95a4c2ae425bb769549aa1a911911ff57c17ae811ae8c8962d0b9746fcb153979190a250565b60006001600160e01b031982166380ac58cd60e01b148061048457506001600160e01b03198216635b5e139f60e01b145b8061049f57506301ffc9a760e01b6001600160e01b03198316145b92915050565b6060600080546104b490611edf565b80601f01602080910402602001604051908101604052809291908181526020018280546104e090611edf565b801561052d5780601f106105025761010080835404028352916020019161052d565b820191906000526020600020905b81548152906001019060200180831161051057829003601f168201915b5050505050905090565b600061054282611190565b506000828152600460205260409020546001600160a01b031661049f565b61056b8282336111c9565b5050565b6001600160a01b03821661059e57604051633250574960e11b8152600060048201526024015b60405180910390fd5b60006105ab8383336111d6565b9050836001600160a01b0316816001600160a01b0316146105f9576040516364283d7b60e01b81526001600160a01b0380861660048301526024820184905282166044820152606401610595565b50505050565b6001600160a01b03811660009081526009602090815260409182902080548351818402810184019094528084526060939283018282801561065f57602002820191906000526020600020905b81548152602001906001019080831161064b575b50505050509050919050565b61068683838360405180602001604052806000815250610e8e565b505050565b610693611163565b6001600160a01b0381166000818152600a6020526040808220805460ff19166001179055517f8b4006ca14f23d4e7aa8d120d1ab7c3761d650eefac1a5d6732dbea94b54ea249190a250565b600061049f82611190565b61072e6040518060c00160405280606081526020016060815260200160006001600160a01b0316815260200160008152602001606081526020016000151581525090565b6000828152600260205260409020546001600160a01b03166107625760405162461bcd60e51b815260040161059590611f19565b60008281526008602052604090819020815160c0810190925280548290829061078a90611edf565b80601f01602080910402602001604051908101604052809291908181526020018280546107b690611edf565b80156108035780601f106107d857610100808354040283529160200191610803565b820191906000526020600020905b8154815290600101906020018083116107e657829003601f168201915b5050505050815260200160018201805461081c90611edf565b80601f016020809104026020016040519081016040528092919081815260200182805461084890611edf565b80156108955780601f1061086a57610100808354040283529160200191610895565b820191906000526020600020905b81548152906001019060200180831161087857829003601f168201915b505050918352505060028201546001600160a01b03166020820152600382015460408201526004820180546060909201916108cf90611edf565b80601f01602080910402602001604051908101604052809291908181526020018280546108fb90611edf565b80156109485780601f1061091d57610100808354040283529160200191610948565b820191906000526020600020905b81548152906001019060200180831161092b57829003601f168201915b50505091835250506005919091015460ff16151560209091015292915050565b60006001600160a01b038216610994576040516322718ad960e21b815260006004820152602401610595565b506001600160a01b031660009081526003602052604090205490565b6109b8611163565b6109c2600061127d565b565b336000908152600a602052604081205460ff16610a1c5760405162461bcd60e51b8152602060048201526016602482015275139bdd08185d5d1a1bdc9a5e9959081d1bc81b5a5b9d60521b6044820152606401610595565b6001600160a01b038516610a725760405162461bcd60e51b815260206004820152601b60248201527f496e76616c696420636f6e7472696275746f72206164647265737300000000006044820152606401610595565b6007805460009182610a8383611f47565b919050559050610a9386826112cf565b6040805160c0810182528681526020808201879052338284015242606083015260808201869052600160a0830152600084815260089091529190912081518190610add9082611fb4565b5060208201516001820190610af29082611fb4565b5060408201516002820180546001600160a01b0319166001600160a01b039092169190911790556060820151600382015560808201516004820190610b379082611fb4565b5060a091909101516005909101805460ff19169115159190911790556001600160a01b0386166000818152600960209081526040808320805460018101825590845291909220018390555182907f152372e800e9df730ccdcc1f0bf8fca422a585dcf5fc18ae3ebebbf1f0a7636090610bb590899089903390612074565b60405180910390a395945050505050565b6060600180546104b490611edf565b6000818152600260205260409020546001600160a01b0316610c095760405162461bcd60e51b815260040161059590611f19565b6000818152600860205260409020600201546001600160a01b03163314610c635760405162461bcd60e51b815260206004820152600e60248201526d2737ba103a34329034b9b9bab2b960911b6044820152606401610595565b600081815260086020526040808220600501805460ff191690555182917f05ab9739647efc0db15a5c7a6c52b7d428fcb1aa37e3eff425ba5b638836c96791a250565b600860205260009081526040902080548190610cc190611edf565b80601f0160208091040260200160405190810160405280929190818152602001828054610ced90611edf565b8015610d3a5780601f10610d0f57610100808354040283529160200191610d3a565b820191906000526020600020905b815481529060010190602001808311610d1d57829003601f168201915b505050505090806001018054610d4f90611edf565b80601f0160208091040260200160405190810160405280929190818152602001828054610d7b90611edf565b8015610dc85780601f10610d9d57610100808354040283529160200191610dc8565b820191906000526020600020905b815481529060010190602001808311610dab57829003601f168201915b505050506002830154600384015460048501805494956001600160a01b039093169491935090610df790611edf565b80601f0160208091040260200160405190810160405280929190818152602001828054610e2390611edf565b8015610e705780601f10610e4557610100808354040283529160200191610e70565b820191906000526020600020905b815481529060010190602001808311610e5357829003601f168201915b5050506005909301549192505060ff1686565b61056b3383836112e9565b610e9984848461056f565b6105f93385858585611388565b6000818152600260205260409020546060906001600160a01b0316610edd5760405162461bcd60e51b815260040161059590611f19565b60008281526008602052604081206004018054610ef990611edf565b80601f0160208091040260200160405190810160405280929190818152602001828054610f2590611edf565b8015610f725780601f10610f4757610100808354040283529160200191610f72565b820191906000526020600020905b815481529060010190602001808311610f5557829003601f168201915b50505050509050600081511115610f895792915050565b610f92836114b3565b604051602001610fa291906120b2565b604051602081830303815290604052915050919050565b60096020528160005260406000208181548110610fd557600080fd5b90600052602060002001600091509150505481565b336000908152600a602052604090205460609060ff166110455760405162461bcd60e51b8152602060048201526016602482015275139bdd08185d5d1a1bdc9a5e9959081d1bc81b5a5b9d60521b6044820152606401610595565b6000855167ffffffffffffffff81111561106157611061611b88565b60405190808252806020026020018201604052801561108a578160200160208202803683370190505b50905060005b86518110156110ed576110be8782815181106110ae576110ae6120f7565b60200260200101518787876109c4565b8282815181106110d0576110d06120f7565b6020908102919091010152806110e581611f47565b915050611090565b5095945050505050565b6001600160a01b03918216600090815260056020908152604080832093909416825291909152205460ff1690565b61112d611163565b6001600160a01b03811661115757604051631e4fbdf760e01b815260006004820152602401610595565b6111608161127d565b50565b6006546001600160a01b031633146109c25760405163118cdaa760e01b8152336004820152602401610595565b6000818152600260205260408120546001600160a01b03168061049f57604051637e27328960e01b815260048101849052602401610595565b6106868383836001611546565b6000828152600260205260408120546001600160a01b0316801580159061120557506001600160a01b03851615155b156112695760405162461bcd60e51b815260206004820152602e60248201527f62617365643a20746f6b656e20697320736f756c626f756e6420616e64206e6f60448201526d6e2d7472616e7366657261626c6560901b6064820152608401610595565b61127485858561164c565b95945050505050565b600680546001600160a01b038381166001600160a01b0319831681179093556040519116919082907f8be0079c531659141344cd1fd0a4f28419497f9722a3daafe3b4186f6b6457e090600090a35050565b61056b828260405180602001604052806000815250611745565b6001600160a01b03821661131b57604051630b61174360e31b81526001600160a01b0383166004820152602401610595565b6001600160a01b03838116600081815260056020908152604080832094871680845294825291829020805460ff191686151590811790915591519182527f17307eab39ab6107e8899845ad3d59bd9653f200f220920489ca2b5937696c31910160405180910390a3505050565b6001600160a01b0383163b156114ac57604051630a85bd0160e11b81526001600160a01b0384169063150b7a02906113ca90889088908790879060040161210d565b6020604051808303816000875af1925050508015611405575060408051601f3d908101601f191682019092526114029181019061214a565b60015b61146e573d808015611433576040519150601f19603f3d011682016040523d82523d6000602084013e611438565b606091505b50805160000361146657604051633250574960e11b81526001600160a01b0385166004820152602401610595565b805160208201fd5b6001600160e01b03198116630a85bd0160e11b146114aa57604051633250574960e11b81526001600160a01b0385166004820152602401610595565b505b5050505050565b606060006114c08361175d565b600101905060008167ffffffffffffffff8111156114e0576114e0611b88565b6040519080825280601f01601f19166020018201604052801561150a576020820181803683370190505b5090508181016020015b600019016f181899199a1a9b1b9c1cb0b131b232b360811b600a86061a8153600a850494508461151457509392505050565b808061155a57506001600160a01b03821615155b1561161c57600061156a84611190565b90506001600160a01b038316158015906115965750826001600160a01b0316816001600160a01b031614155b80156115a957506115a781846110f7565b155b156115d25760405163a9fbf51f60e01b81526001600160a01b0384166004820152602401610595565b811561161a5783856001600160a01b0316826001600160a01b03167f8c5be1e5ebec7d5bd14f71427d1e84f3dd0314c0f7b2291e5b200ac8c7c3b92560405160405180910390a45b505b5050600090815260046020526040902080546001600160a01b0319166001600160a01b0392909216919091179055565b6000828152600260205260408120546001600160a01b039081169083161561167957611679818486611835565b6001600160a01b038116156116b757611696600085600080611546565b6001600160a01b038116600090815260036020526040902080546000190190555b6001600160a01b038516156116e6576001600160a01b0385166000908152600360205260409020805460010190555b60008481526002602052604080822080546001600160a01b0319166001600160a01b0389811691821790925591518793918516917fddf252ad1be2c89b69c2b068fc378daa952ba7f163c4a11628f55a4df523b3ef91a4949350505050565b61174f8383611899565b610686336000858585611388565b60008072184f03e93ff9f4daa797ed6e38ed64bf6a1f0160401b831061179c5772184f03e93ff9f4daa797ed6e38ed64bf6a1f0160401b830492506040015b6d04ee2d6d415b85acef810000000083106117c8576d04ee2d6d415b85acef8100000000830492506020015b662386f26fc1000083106117e657662386f26fc10000830492506010015b6305f5e10083106117fe576305f5e100830492506008015b612710831061181257612710830492506004015b60648310611824576064830492506002015b600a831061049f5760010192915050565b6118408383836118fe565b610686576001600160a01b03831661186e57604051637e27328960e01b815260048101829052602401610595565b60405163177e802f60e01b81526001600160a01b038316600482015260248101829052604401610595565b6001600160a01b0382166118c357604051633250574960e11b815260006004820152602401610595565b60006118d1838360006111d6565b90506001600160a01b03811615610686576040516339e3563760e11b815260006004820152602401610595565b60006001600160a01b0383161580159061195c5750826001600160a01b0316846001600160a01b03161480611938575061193884846110f7565b8061195c57506000828152600460205260409020546001600160a01b038481169116145b949350505050565b80356001600160a01b038116811461197b57600080fd5b919050565b60006020828403121561199257600080fd5b61199b82611964565b9392505050565b6001600160e01b03198116811461116057600080fd5b6000602082840312156119ca57600080fd5b813561199b816119a2565b60005b838110156119f05781810151838201526020016119d8565b50506000910152565b60008151808452611a118160208601602086016119d5565b601f01601f19169290920160200192915050565b60208152600061199b60208301846119f9565b600060208284031215611a4a57600080fd5b5035919050565b60008060408385031215611a6457600080fd5b611a6d83611964565b946020939093013593505050565b600080600060608486031215611a9057600080fd5b611a9984611964565b9250611aa760208501611964565b9150604084013590509250925092565b6020808252825182820181905260009190848201906040850190845b81811015611aef57835183529284019291840191600101611ad3565b50909695505050505050565b602081526000825160c06020840152611b1760e08401826119f9565b90506020840151601f1980858403016040860152611b3583836119f9565b925060018060a01b0360408701511660608601526060860151608086015260808601519150808584030160a086015250611b6f82826119f9565b91505060a0840151151560c08401528091505092915050565b634e487b7160e01b600052604160045260246000fd5b604051601f8201601f1916810167ffffffffffffffff81118282101715611bc757611bc7611b88565b604052919050565b600067ffffffffffffffff831115611be957611be9611b88565b611bfc601f8401601f1916602001611b9e565b9050828152838383011115611c1057600080fd5b828260208301376000602084830101529392505050565b600082601f830112611c3857600080fd5b61199b83833560208501611bcf565b60008060008060808587031215611c5d57600080fd5b611c6685611964565b9350602085013567ffffffffffffffff80821115611c8357600080fd5b611c8f88838901611c27565b94506040870135915080821115611ca557600080fd5b611cb188838901611c27565b93506060870135915080821115611cc757600080fd5b50611cd487828801611c27565b91505092959194509250565b60c081526000611cf360c08301896119f9565b8281036020840152611d0581896119f9565b6001600160a01b03881660408501526060840187905283810360808501529050611d2f81866119f9565b91505082151560a0830152979650505050505050565b60008060408385031215611d5857600080fd5b611d6183611964565b915060208301358015158114611d7657600080fd5b809150509250929050565b60008060008060808587031215611d9757600080fd5b611da085611964565b9350611dae60208601611964565b925060408501359150606085013567ffffffffffffffff811115611dd157600080fd5b8501601f81018713611de257600080fd5b611cd487823560208401611bcf565b60008060008060808587031215611e0757600080fd5b843567ffffffffffffffff80821115611e1f57600080fd5b818701915087601f830112611e3357600080fd5b8135602082821115611e4757611e47611b88565b8160051b611e56828201611b9e565b928352848101820192828101908c851115611e7057600080fd5b958301955b84871015611e9557611e8687611964565b82529583019590830190611e75565b9950505088013592505080821115611c8357600080fd5b60008060408385031215611ebf57600080fd5b611ec883611964565b9150611ed660208401611964565b90509250929050565b600181811c90821680611ef357607f821691505b602082108103611f1357634e487b7160e01b600052602260045260246000fd5b50919050565b602080825260149082015273141c9bdbd988191bd95cc81b9bdd08195e1a5cdd60621b604082015260600190565b600060018201611f6757634e487b7160e01b600052601160045260246000fd5b5060010190565b601f82111561068657600081815260208120601f850160051c81016020861015611f955750805b601f850160051c820191505b818110156114aa57828155600101611fa1565b815167ffffffffffffffff811115611fce57611fce611b88565b611fe281611fdc8454611edf565b84611f6e565b602080601f8311600181146120175760008415611fff5750858301515b600019600386901b1c1916600185901b1785556114aa565b600085815260208120601f198616915b8281101561204657888601518255948401946001909101908401612027565b50858210156120645787850151600019600388901b60f8161c191681555b5050505050600190811b01905550565b60608152600061208760608301866119f9565b828103602084015261209981866119f9565b91505060018060a01b0383166040830152949350505050565b7f68747470733a2f2f62617365642e78797a2f70726f6f662f00000000000000008152600082516120ea8160188501602087016119d5565b9190910160180192915050565b634e487b7160e01b600052603260045260246000fd5b6001600160a01b0385811682528416602082015260408101839052608060608201819052600090612140908301846119f9565b9695505050505050565b60006020828403121561215c57600080fd5b815161199b816119a256fea2646970667358221220c2cbb53bccdce82854bfc41d709bf550724f941bcea0ebf8a3c177962ba3e9fa64736f6c63430008140033",
  "linkReferences": {},
  "deployedLinkReferences": {}
}